S02400006D6B6D785F6D65676133325F66616E6374726C5F666565646261636B2E7372656318
S11300000C9431000C944E000C944E000C944E0051
S11300100C944E000C948F000C9450000C944E00E1
S11300200C944E000C944E000C944E000C944E0014
S11300300C944E000C9481020C94AD020C94D302E7
S11300400C944E000C944E000C944E000C944E00F4
S11300500C944E00F101F8010102090211021F0281
S1130060330211241FBECFE5D8E0DEBFCDBF10E0C0
S1130070A0E6B0E0E2E7F7E002C005900D92AC36EE
S1130080B107D9F720E0ACE6B0E001C01D92A53E6F
S1130090B207E1F70E94B2000C94B7030C9400007D
S11300A01F920F920FB60F9211242F933F938F93A9
S11300B09F938CB59DB52091750030917600821B7D
S11300C0930B90936100809360008CB59DB59093E1
S11300D07600809375009EB580E489278EBD81E00B
S11300E080936D0080916000909161008D3B9240FF
S11300F040F080916000909161009093740080932F
S11301007300809171008F5F809371009F918F9134
S11301103F912F910F900FBE0F901F9018951F9233
S11301200F920FB60F9211248F93809170008F5FFE
S11301308093700080917000843171F4809171001B
S1130140811104C081E08093720002C01092720099
S113015010927100109270008F910F900FBE0F904B
S11301601F9018951ABA8E9A8D9A83B78A6683BFA0
S11301701CBE1FBC8EB5846C8EBD89B7806289BFDE
S113018085B5876085BD89B7806489BF0E945001A9
S1130190789411E0C4EAD7E0609172008091730012
S11301A0909174000E94670290936F0080936E0098
S11301B010936D0060916E0070916F0080916C00DF
S11301C090E00E94500210926D00D0936F00C09393
S11301D06E000E94DB01E0CFFC0161157105B9F0EE
S11301E020E030E040E080E0DF01A20FB31F9C91EB
S11301F0892798E027E0880F08F482279A95D9F791
S11302004F5F242F30E02617370770F3089580E0FE
S113021008950F931F93CF93DF93CDB7DEB76697FF
S11302200FB6F894DEBF0FBECDBF89019AE599835E
S113023095EA9A838B836C832D83232BA1F080E032
S113024090E020E0E6E0F0E0EC0FFD1FE20FF11D8E
S1130250DA01A80FB91F8C9180832F5F822F90E061
S11302608017910778F3B8016D5F7F4FCE01039635
S11302700E94EC00FE01E00FF11F8683B8016A5F63
S11302807F4FCE0101960E94250366960FB6F8941F
S1130290DEBF0FBECDBFDF91CF911F910F910895A7
S11302A087E690E00E94DF020895CF93DF93CDB7F5
S11302B0DEB728970FB6F894DEBF0FBECDBF80918E
S11302C0BE008A3009F06EC08091BF00833021F1F6
S11302D028F4813059F08230D1F064C0853009F4BB
S11302E043C070F1863009F44BC05CC084E4898358
S11302F01A8285E58B8386E68C8328E030E0AE01A4
S11303004F5F5F4F64E780E00E9409014BC080911A
S1130310C10080936C0046C080916E0090916F0084
S1130320998380916E0090916F008A8322E030E07F
S1130330AE014F5F5F4F64E780E00E94090132C065
S113034080916E0090916F004AE0BE016F5F7F4F15
S11303500E94820325E030E0AE014F5F5F4F64E707
S113036080E00E9409011EC08CB7898321E030E03F
S1130370AE014F5F5F4F64E780E00E94090112C045
S113038088E0E2E6F0E0DE01119601900D928A9594
S1130390E1F728E030E0AE014F5F5F4F64E780E0B3
S11303A00E94090128960FB6F894DEBF0FBECDBF98
S11303B0DF91CF910895CF93DF930E94F5029C01C2
S11303C02227232B09F061C0E091BD004E2F50E09D
S11303D04730510508F059C0FA01E65DFF4F0C940F
S11303E07C038A3509F051C081E08093BD004DC083
S11303F0853A21F482E08093BD0047C01092BD008D
S113040044C0EEEBF0E08083848B83E08093BD00F6
S11304103CC0EEEBF0E08183858B84E08093BD00EB
S113042034C0EEEBF0E08283868B882321F085E0F4
S11304308093BD002AC086E08093BD0026C09091C1
S11304407700E92FF0E0E254FF4F8383878B81E04C
S1130450890F809377009091C000891316C086E0BD
S11304608093BD0012C0CEEBD0E08B8B6A8170E02C
S11304706D5F7F4F82ED90E00E94EC009B898913B1
S113048002C00E9455011092BD00DF91CF910895E2
S11304909CB7981B9CBF08959CB7890F8CBF089587
S11304A00F931F93CF93DF93EC018B01861797076C
S11304B018F485E00E944C020C171D0718F485E01F
S11304C00E944802DF91CF911F910F910895CF931D
S11304D0C62F9C0140E050E064E274EF80E090E0BD
S11304E00E945D038FE0829FB001839F700D1124F1
S11304F0C13019F0862F972F02C080E090E0CF9191
S113050008951F920F920FB60F9211242F938F9379
S11305109F93EF93FF938BB12CB18C71E0917A0090
S1130520EF5FEF7190917900E91739F0E0937A0069
S1130530F0E0E358FF4F208301C082E090917800FF
S1130540892B80937800FF91EF919F918F912F9148
S11305500F900FBE0F901F9018951F920F920FB619
S11305600F9211248F939F93EF93FF9390917C00AC
S113057080917B00981761F0E0917B00EF5FEF7151
S1130580E0937B00F0E0E356FF4F80818CB902C01A
S1130590569A5598FF91EF919F918F910F900FBEAE
S11305A00F901F9018951F920F920FB60F9211245F
S11305B05698C0980F900FBE0F901F9018951092E8
S11305C07C0010927B0010927A001092790099239B
S11305D014F422E02BB9907890BD89B988E98AB9DE
S11305E086E880BDB89AC098089590917A00809169
S11305F079009817A9F0909179009F5F9F71E92F76
S1130600F0E0E358FF4F20818091780090937900C7
S11306101092780090E0982F8827820F911D0895FA
S113062080E091E0089520917C002F5F2F719091DC
S11306307B002917E1F3E22FF0E0E356FF4F8083BC
S113064020937C00C09A559A08950F931F93CF93DB
S1130650DF936115710551F08C01EC01060F171F32
S113066089910E941303C017D107D1F7DF91CF916D
S11306701F910F910895A1E21A2EAA1BBB1BFD0125
S11306800DC0AA1FBB1FEE1FFF1FA217B307E4076D
S1130690F50720F0A21BB30BE40BF50B661F771FC5
S11306A0881F991F1A9469F76095709580959095A5
S11306B09B01AC01BD01CF010895052E97FB1EF4EB
S11306C000940E94740357FD07D00E943B0307FC6B
S11306D003D04EF40C9474035095409530952195B5
S11306E03F4F4F4F5F4F089590958095709561955A
S11306F07F4F8F4F9F4F0895EE0FFF1F0590F4918A
S1130700E02D0994BB274A3031F4992322F4BDE249
S1130710909581959F4F0C948E03BB27FB01552721
S1130720AA27880F991FAA1FA41710F0A41B83954A
S11307305051B9F7A05DAA3308F0A95DA1930097C1
S113074079F7B111B1931192CB010C94A703DC0199
S1130750FC01672F71917723E1F7329704C07C91F4
S11307606D9370836291AE17BF07C8F30895F89430
S1050770FFCFB5
S10F0772010046616E5F6374726C00004D
S9030000FC
