:100000000C942A000C9447000C9447000C94470071
:100010000C9447000C9489000C9449000C94470000
:100020000C9447000C9447000C9447000C94470034
:100030000C9447000C94A9000C94D5000C94FB0080
:100040000C9447000C9447000C9447000C94470014
:100050000C94470011241FBECFE5D8E0DEBFCDBF12
:1000600010E0A0E6B0E0E2E1F2E002C005900D92FF
:10007000A236B107D9F720E0A2E6B0E001C01D9298
:10008000AE3AB207E1F70E94A7000C9407010C9466
:1000900000001F920F920FB60F9211242F933F93DF
:1000A0008F939F938CB59DB5209167003091680028
:1000B000821B930B90936100809360008CB59DB57B
:1000C00090936800809367009EB580E489278EBD79
:1000D00080916000909161008D3B924040F0809152
:1000E000600090916100909366008093650080911C
:1000F0006200909163000196909363008093620088
:100100009F918F913F912F910F900FBE0F901F9055
:1001100018951F920F920FB60F9211248F939F93F1
:100120008091620090916300892B21F481E080939B
:10013000640002C01092640010926300109262008A
:100140009F918F910F900FBE0F901F9018957894EC
:10015000FFCF1F920F920FB60F9211242F938F9300
:100160009F93EF93FF938BB12CB18C71E0916B0057
:10017000EF5FEF7190916A00E91739F0E0936B003F
:10018000F0E0E259FF4F208301C082E090916900C6
:10019000892B80936900FF91EF919F918F912F910F
:1001A0000F900FBE0F901F9018951F920F920FB6D1
:1001B0000F9211248F939F93EF93FF9390916D0073
:1001C00080916C00981761F0E0916C00EF5FEF7127
:1001D000E0936C00F0E0E257FF4F80818CB902C0E1
:1001E000569A5598FF91EF919F918F910F900FBE66
:1001F0000F901F9018951F920F920FB60F92112417
:100200005698C0980F900FBE0F901F901895F894B5
:02021000FFCF1E
:020212000100E9
:00000001FF
