:100000000C9431000C944E000C944E000C944E0055
:100010000C944E000C948C000C9450000C944E00E8
:100020000C944E000C944E000C944E000C944E0018
:100030000C944E000C9418020C9444020C946A0226
:100040000C944E000C944E000C944E000C944E00F8
:100050000C944E00C101C801D101D901E101EF01A9
:10006000030211241FBECFE5D8E0DEBFCDBF10E0F4
:10007000A0E6B0E0EEE1F6E002C005900D92AC36ED
:10008000B107D9F720E0ACE6B0E001C01D92A43E74
:10009000B207E1F70E94AF000C940D030C9400002E
:1000A0001F920F920FB60F9211242F933F938F93AD
:1000B0009F938CB59DB52091740030917500821B83
:1000C000930B90936100809360008CB59DB59093E5
:1000D0007500809374009EB580E489278EBD809161
:1000E0006000909161008D3B924040F080916000F3
:1000F00090916100909373008093720080917000E2
:100100008F5F809370009F918F913F912F910F90FF
:100110000FBE0F901F9018951F920F920FB60F925F
:1001200011248F9380916F008F5F80936F00809177
:100130006F00843171F480917000811104C081E0FE
:100140008093710002C010927100109270001092A2
:100150006F008F910F900FBE0F901F9018951ABAD5
:100160008E9A8D9A83B78A6683BF1CBE1FBC8EB5DC
:10017000846C8EBD89B7806289BF85B5876085BD77
:1001800089B7806489BF0E9433017894C4EAD7E0BC
:10019000D0936E00C0936D000E94AB01F9CFFC01BB
:1001A00061157105B9F020E030E040E080E0DF014A
:1001B000A20FB31F9C91892798E027E0880F08F4CD
:1001C00082279A95D9F74F5F242F30E026173707FB
:1001D00070F3089580E008950F931F93CF93DF93FA
:1001E000CDB7DEB766970FB6F894DEBF0FBECDBFB2
:1001F00089019AE5998395EA9A838B836C832D8391
:10020000232BA1F080E090E020E0E6E0F0E0EC0FAE
:10021000FD1FE20FF11DDA01A80FB91F8C91808339
:100220002F5F822F90E08017910778F3B8016D5F00
:100230007F4FCE0103960E94CF00FE01E00FF11F19
:100240008683B8016A5F7F4FCE0101960E94BC028F
:1002500066960FB6F894DEBF0FBECDBFDF91CF918B
:100260001F910F91089587E690E00E94760208950D
:10027000CF93DF93CDB7DEB728970FB6F894DEBFE4
:100280000FBECDBF8091BD008A3009F05BC0809168
:10029000BE00833021F128F4813049F08230D1F062
:1002A00051C0843081F1853009F441C04BC088E0F1
:1002B000E2E6F0E0DE01119601900D928A95E1F7F9
:1002C00028E030E0AE014F5F5F4F64E780E00E94BE
:1002D000EC0038C08091C00080936C0033C08091E6
:1002E0006D0090916E00998380916D0090916E00E9
:1002F0008A8322E030E0AE014F5F5F4F64E780E029
:100300000E94EC001FC080916D0090916E004AE049
:10031000BE016F5F7F4F0E94D80225E030E0AE0142
:100320004F5F5F4F64E780E00E94EC000BC08CB72A
:10033000898321E030E0AE014F5F5F4F64E780E0EA
:100340000E94EC0028960FB6F894DEBF0FBECDBF1A
:10035000DF91CF910895CF93DF930E948C029C018F
:100360002227232B09F061C0E091BC004E2F50E002
:100370004730510508F059C0FA01E65DFF4F0C9473
:10038000D2028A3509F051C081E08093BC004DC093
:10039000853A21F482E08093BC0047C01092BC00F3
:1003A00044C0EDEBF0E08083848B83E08093BC005D
:1003B0003CC0EDEBF0E08183858B84E08093BC0052
:1003C00034C0EDEBF0E08283868B882321F085E05A
:1003D0008093BC002AC086E08093BC0026C0909128
:1003E0007600E92FF0E0E354FF4F8383878B81E0B1
:1003F000890F809376009091BF00891316C086E024
:100400008093BC0012C0CDEBD0E08B8B6A8170E092
:100410006D5F7F4F81ED90E00E94CF009B89891333
:1004200002C00E9438011092BC00DF91CF91089564
:100430001F920F920FB60F9211242F938F939F93B9
:10044000EF93FF938BB12CB18C71E0917900EF5F4A
:10045000EF7190917800E91739F0E0937900F0E0BE
:10046000E458FF4F208301C082E090917700892BF0
:1004700080937700FF91EF919F918F912F910F9033
:100480000FBE0F901F9018951F920F920FB60F92EC
:1004900011248F939F93EF93FF9390917B00809112
:1004A0007A00981761F0E0917A00EF5FEF71E093C6
:1004B0007A00F0E0E456FF4F80818CB902C0569A72
:1004C0005598FF91EF919F918F910F900FBE0F90D4
:1004D0001F9018951F920F920FB60F9211245698E5
:1004E000C0980F900FBE0F901F90189510927B0030
:1004F00010927A001092790010927800992314F4E7
:1005000022E02BB9907890BD89B988E98AB986E84C
:1005100080BDB89AC0980895909179008091780034
:100520009817A9F0909178009F5F9F71E92FF0E0F4
:10053000E458FF4F208180917700909378001092CB
:10054000770090E0982F8827820F911D089580E012
:1005500091E0089520917B002F5F2F7190917A0098
:100560002917E1F3E22FF0E0E456FF4F8083209358
:100570007B00C09A559A08950F931F93CF93DF93F2
:100580006115710551F08C01EC01060F171F89915F
:100590000E94AA02C017D107D1F7DF91CF911F9116
:1005A0000F910895EE0FFF1F0590F491E02D09942F
:1005B000BB274A3031F4992322F4BDE2909581950E
:1005C0009F4F0C94E402BB27FB015527AA27880FF5
:1005D000991FAA1FA41710F0A41B83955051B9F7B7
:1005E000A05DAA3308F0A95DA193009779F7B11136
:1005F000B1931192CB010C94FD02DC01FC01672F39
:1006000071917723E1F7329704C07C916D937083E9
:0E0610006291AE17BF07C8F30895F894FFCFAC
:0C061E00010046616E5F6374726C0000A6
:00000001FF
